{
  "contractName": "Marketplace",
  "abi": [
    {
      "anonymous": false,
      "inputs": [
        {
          "indexed": false,
          "internalType": "string",
          "name": "message",
          "type": "string"
        }
      ],
      "name": "Log",
      "type": "event"
    },
    {
      "inputs": [
        {
          "internalType": "uint256",
          "name": "",
          "type": "uint256"
        }
      ],
      "name": "models",
      "outputs": [
        {
          "internalType": "string",
          "name": "name",
          "type": "string"
        },
        {
          "internalType": "string",
          "name": "description",
          "type": "string"
        },
        {
          "internalType": "uint256",
          "name": "price",
          "type": "uint256"
        },
        {
          "internalType": "address payable",
          "name": "creator",
          "type": "address"
        },
        {
          "internalType": "uint8",
          "name": "rating",
          "type": "uint8"
        },
        {
          "internalType": "uint256",
          "name": "ratingCount",
          "type": "uint256"
        }
      ],
      "stateMutability": "view",
      "type": "function"
    },
    {
      "inputs": [
        {
          "internalType": "address",
          "name": "",
          "type": "address"
        },
        {
          "internalType": "uint256",
          "name": "",
          "type": "uint256"
        }
      ],
      "name": "purchasedModels",
      "outputs": [
        {
          "internalType": "bool",
          "name": "",
          "type": "bool"
        }
      ],
      "stateMutability": "view",
      "type": "function"
    },
    {
      "inputs": [
        {
          "internalType": "uint256",
          "name": "modelId",
          "type": "uint256"
        }
      ],
      "name": "purchaseModel",
      "outputs": [],
      "stateMutability": "payable",
      "type": "function"
    },
    {
      "inputs": [],
      "name": "getModels",
      "outputs": [
        {
          "components": [
            {
              "internalType": "string",
              "name": "name",
              "type": "string"
            },
            {
              "internalType": "string",
              "name": "description",
              "type": "string"
            },
            {
              "internalType": "uint256",
              "name": "price",
              "type": "uint256"
            },
            {
              "internalType": "address payable",
              "name": "creator",
              "type": "address"
            },
            {
              "internalType": "uint8",
              "name": "rating",
              "type": "uint8"
            },
            {
              "internalType": "uint256",
              "name": "ratingCount",
              "type": "uint256"
            }
          ],
          "internalType": "struct Marketplace.Model[]",
          "name": "",
          "type": "tuple[]"
        }
      ],
      "stateMutability": "view",
      "type": "function"
    },
    {
      "inputs": [
        {
          "internalType": "string",
          "name": "name",
          "type": "string"
        },
        {
          "internalType": "string",
          "name": "description",
          "type": "string"
        },
        {
          "internalType": "uint256",
          "name": "price",
          "type": "uint256"
        }
      ],
      "name": "listModel",
      "outputs": [],
      "stateMutability": "nonpayable",
      "type": "function"
    },
    {
      "inputs": [
        {
          "internalType": "uint256",
          "name": "modelId",
          "type": "uint256"
        },
        {
          "internalType": "uint8",
          "name": "rating",
          "type": "uint8"
        }
      ],
      "name": "rateModel",
      "outputs": [],
      "stateMutability": "nonpayable",
      "type": "function"
    },
    {
      "inputs": [],
      "name": "withdrawFunds",
      "outputs": [],
      "stateMutability": "nonpayable",
      "type": "function"
    },
    {
      "inputs": [
        {
          "internalType": "uint256",
          "name": "modelId",
          "type": "uint256"
        }
      ],
      "name": "getModelDetails",
      "outputs": [
        {
          "components": [
            {
              "internalType": "string",
              "name": "name",
              "type": "string"
            },
            {
              "internalType": "string",
              "name": "description",
              "type": "string"
            },
            {
              "internalType": "uint256",
              "name": "price",
              "type": "uint256"
            },
            {
              "internalType": "address payable",
              "name": "creator",
              "type": "address"
            },
            {
              "internalType": "uint8",
              "name": "rating",
              "type": "uint8"
            },
            {
              "internalType": "uint256",
              "name": "ratingCount",
              "type": "uint256"
            }
          ],
          "internalType": "struct Marketplace.Model",
          "name": "",
          "type": "tuple"
        }
      ],
      "stateMutability": "view",
      "type": "function"
    },
    {
      "inputs": [],
      "name": "getModelCount",
      "outputs": [
        {
          "internalType": "uint256",
          "name": "",
          "type": "uint256"
        }
      ],
      "stateMutability": "view",
      "type": "function"
    }
  ],
  "bytecode": "0x608060405234801561001057600080fd5b50611a43806100206000396000f3fe6080604052600436106100865760003560e01c806331fc042f1161005957806331fc042f1461011f5780634989dbb01461015c5780636a030ca91461018757806387d258d2146101c9578063dc7468621461020657610086565b806309817d451461008b57806312ee1c0e146100b65780631c788a9a146100df57806324600fc314610108575b600080fd5b34801561009757600080fd5b506100a0610222565b6040516100ad9190611572565b60405180910390f35b3480156100c257600080fd5b506100dd60048036038101906100d891906110ca565b61042c565b005b3480156100eb57600080fd5b5061010660048036038101906101019190611172565b610591565b005b34801561011457600080fd5b5061011d6106b1565b005b34801561012b57600080fd5b5061014660048036038101906101419190611149565b6106fa565b60405161015391906116be565b60405180910390f35b34801561016857600080fd5b5061017161094e565b60405161017e91906116e0565b60405180910390f35b34801561019357600080fd5b506101ae60048036038101906101a99190611149565b61095a565b6040516101c0969594939291906115af565b60405180910390f35b3480156101d557600080fd5b506101f060048036038101906101eb919061108e565b610ae3565b6040516101fd9190611594565b60405180910390f35b610220600480360381019061021b9190611149565b610b12565b005b60606000805480602002602001604051908101604052809291908181526020016000905b8282101561042357838290600052602060002090600502016040518060c0016040529081600082018054610279906118f8565b80601f01602080910402602001604051908101604052809291908181526020018280546102a5906118f8565b80156102f25780601f106102c7576101008083540402835291602001916102f2565b820191906000526020600020905b8154815290600101906020018083116102d557829003601f168201915b5050505050815260200160018201805461030b906118f8565b80601f0160208091040260200160405190810160405280929190818152602001828054610337906118f8565b80156103845780601f1061035957610100808354040283529160200191610384565b820191906000526020600020905b81548152906001019060200180831161036757829003601f168201915b50505050508152602001600282015481526020016003820160009054906101000a900473ffffffffffffffffffffffffffffffffffffffff1673ffffffffffffffffffffffffffffffffffffffff1673ffffffffffffffffffffffffffffffffffffffff1681526020016003820160149054906101000a900460ff1660ff1660ff16815260200160048201548152505081526020019060010190610246565b50505050905090565b60006040518060c001604052808581526020018481526020018381526020013373ffffffffffffffffffffffffffffffffffffffff168152602001600060ff1681526020016000815250908060018154018082558091505060019003906000526020600020906005020160009091909190915060008201518160000190805190602001906104bb929190610ef5565b5060208201518160010190805190602001906104d8929190610ef5565b506040820151816002015560608201518160030160006101000a81548173ffffffffffffffffffffffffffffffffffffffff021916908373ffffffffffffffffffffffffffffffffffffffff16021790555060808201518160030160146101000a81548160ff021916908360ff16021790555060a0820151816004015550507fcf34ef537ac33ee1ac626ca1587a0a7e8e51561e5514f8cb36afa1c5102b3bab6040516105849061165e565b60405180910390a1505050565b60008054905082106105d8576040517f08c379a00000000000000000000000000000000000000000000000000000000081526004016105cf9061169e565b60405180910390fd5b6000808381548110610613577f4e487b7100000000000000000000000000000000000000000000000000000000600052603260045260246000fd5b90600052602060002090600502019050818160030160148282829054906101000a900460ff166106439190611818565b92506101000a81548160ff021916908360ff160217905550600181600401600082825461067091906117c2565b925050819055507fcf34ef537ac33ee1ac626ca1587a0a7e8e51561e5514f8cb36afa1c5102b3bab6040516106a49061161e565b60405180910390a1505050565b3373ffffffffffffffffffffffffffffffffffffffff166108fc479081150290604051600060405180830381858888f193505050501580156106f7573d6000803e3d6000fd5b50565b610702610f7b565b6000805490508210610749576040517f08c379a00000000000000000000000000000000000000000000000000000000081526004016107409061169e565b60405180910390fd5b60008281548110610783577f4e487b7100000000000000000000000000000000000000000000000000000000600052603260045260246000fd5b90600052602060002090600502016040518060c00160405290816000820180546107ac906118f8565b80601f01602080910402602001604051908101604052809291908181526020018280546107d8906118f8565b80156108255780601f106107fa57610100808354040283529160200191610825565b820191906000526020600020905b81548152906001019060200180831161080857829003601f168201915b5050505050815260200160018201805461083e906118f8565b80601f016020809104026020016040519081016040528092919081815260200182805461086a906118f8565b80156108b75780601f1061088c576101008083540402835291602001916108b7565b820191906000526020600020905b81548152906001019060200180831161089a57829003601f168201915b50505050508152602001600282015481526020016003820160009054906101000a900473ffffffffffffffffffffffffffffffffffffffff1673ffffffffffffffffffffffffffffffffffffffff1673ffffffffffffffffffffffffffffffffffffffff1681526020016003820160149054906101000a900460ff1660ff1660ff1681526020016004820154815250509050919050565b60008080549050905090565b6000818154811061096a57600080fd5b906000526020600020906005020160009150905080600001805461098d906118f8565b80601f01602080910402602001604051908101604052809291908181526020018280546109b9906118f8565b8015610a065780601f106109db57610100808354040283529160200191610a06565b820191906000526020600020905b8154815290600101906020018083116109e957829003601f168201915b505050505090806001018054610a1b906118f8565b80601f0160208091040260200160405190810160405280929190818152602001828054610a47906118f8565b8015610a945780601f10610a6957610100808354040283529160200191610a94565b820191906000526020600020905b815481529060010190602001808311610a7757829003601f168201915b5050505050908060020154908060030160009054906101000a900473ffffffffffffffffffffffffffffffffffffffff16908060030160149054906101000a900460ff16908060040154905086565b60016020528160005260406000206020528060005260406000206000915091509054906101000a900460ff1681565b6000805490508110610b59576040517f08c379a0000000000000000000000000000000000000000000000000000000008152600401610b509061169e565b60405180910390fd5b6000808281548110610b94577f4e487b7100000000000000000000000000000000000000000000000000000000600052603260045260246000fd5b90600052602060002090600502016040518060c0016040529081600082018054610bbd906118f8565b80601f0160208091040260200160405190810160405280929190818152602001828054610be9906118f8565b8015610c365780601f10610c0b57610100808354040283529160200191610c36565b820191906000526020600020905b815481529060010190602001808311610c1957829003601f168201915b50505050508152602001600182018054610c4f906118f8565b80601f0160208091040260200160405190810160405280929190818152602001828054610c7b906118f8565b8015610cc85780601f10610c9d57610100808354040283529160200191610cc8565b820191906000526020600020905b815481529060010190602001808311610cab57829003601f168201915b50505050508152602001600282015481526020016003820160009054906101000a900473ffffffffffffffffffffffffffffffffffffffff1673ffffffffffffffffffffffffffffffffffffffff1673ffffffffffffffffffffffffffffffffffffffff1681526020016003820160149054906101000a900460ff1660ff1660ff168152602001600482015481525050905080604001513414610da0576040517f08c379a0000000000000000000000000000000000000000000000000000000008152600401610d979061163e565b60405180910390fd5b600160003373ffffffffffffffffffffffffffffffffffffffff1673ffffffffffffffffffffffffffffffffffffffff168152602001908152602001600020600083815260200190815260200160002060009054906101000a900460ff1615610e3e576040517f08c379a0000000000000000000000000000000000000000000000000000000008152600401610e359061167e565b60405180910390fd5b806060015173ffffffffffffffffffffffffffffffffffffffff166108fc349081150290604051600060405180830381858888f19350505050158015610e88573d6000803e3d6000fd5b5060018060003373ffffffffffffffffffffffffffffffffffffffff1673ffffffffffffffffffffffffffffffffffffffff168152602001908152602001600020600084815260200190815260200160002060006101000a81548160ff0219169083151502179055505050565b828054610f01906118f8565b90600052602060002090601f016020900481019282610f235760008555610f6a565b82601f10610f3c57805160ff1916838001178555610f6a565b82800160010185558215610f6a579182015b82811115610f69578251825591602001919060010190610f4e565b5b509050610f779190610fca565b5090565b6040518060c00160405280606081526020016060815260200160008152602001600073ffffffffffffffffffffffffffffffffffffffff168152602001600060ff168152602001600081525090565b5b80821115610fe3576000816000905550600101610fcb565b5090565b6000610ffa610ff58461172c565b6116fb565b90508281526020810184848401111561101257600080fd5b61101d8482856118b6565b509392505050565b600081359050611034816119c8565b92915050565b600082601f83011261104b57600080fd5b813561105b848260208601610fe7565b91505092915050565b600081359050611073816119df565b92915050565b600081359050611088816119f6565b92915050565b600080604083850312156110a157600080fd5b60006110af85828601611025565b92505060206110c085828601611064565b9150509250929050565b6000806000606084860312156110df57600080fd5b600084013567ffffffffffffffff8111156110f957600080fd5b6111058682870161103a565b935050602084013567ffffffffffffffff81111561112257600080fd5b61112e8682870161103a565b925050604061113f86828701611064565b9150509250925092565b60006020828403121561115b57600080fd5b600061116984828501611064565b91505092915050565b6000806040838503121561118557600080fd5b600061119385828601611064565b92505060206111a485828601611079565b9150509250929050565b60006111ba8383611416565b905092915050565b6111cb81611861565b82525050565b6111da81611861565b82525050565b60006111eb8261176c565b6111f5818561178f565b9350836020820285016112078561175c565b8060005b85811015611243578484038952815161122485826111ae565b945061122f83611782565b925060208a0199505060018101905061120b565b50829750879550505050505092915050565b61125e81611873565b82525050565b600061126f82611777565b61127981856117a0565b93506112898185602086016118c5565b611292816119b7565b840191505092915050565b60006112a882611777565b6112b281856117b1565b93506112c28185602086016118c5565b6112cb816119b7565b840191505092915050565b60006112e3600f836117b1565b91507f4d6f64656c2077617320726174656400000000000000000000000000000000006000830152602082019050919050565b60006113236019836117b1565b91507f496e636f7272656374207061796d656e7420616d6f756e742e000000000000006000830152602082019050919050565b60006113636010836117b1565b91507f4d6f64656c2077617320707573686564000000000000000000000000000000006000830152602082019050919050565b60006113a36018836117b1565b91507f4d6f64656c20616c7265616479207075726368617365642e00000000000000006000830152602082019050919050565b60006113e36015836117b1565b91507f4d6f64656c20646f6573206e6f742065786973742e00000000000000000000006000830152602082019050919050565b600060c08301600083015184820360008601526114338282611264565b9150506020830151848203602086015261144d8282611264565b91505060408301516114626040860182611536565b50606083015161147560608601826111c2565b5060808301516114886080860182611554565b5060a083015161149b60a0860182611536565b508091505092915050565b600060c08301600083015184820360008601526114c38282611264565b915050602083015184820360208601526114dd8282611264565b91505060408301516114f26040860182611536565b50606083015161150560608601826111c2565b5060808301516115186080860182611554565b5060a083015161152b60a0860182611536565b508091505092915050565b61153f8161189f565b82525050565b61154e8161189f565b82525050565b61155d816118a9565b82525050565b61156c816118a9565b82525050565b6000602082019050818103600083015261158c81846111e0565b905092915050565b60006020820190506115a96000830184611255565b92915050565b600060c08201905081810360008301526115c9818961129d565b905081810360208301526115dd818861129d565b90506115ec6040830187611545565b6115f960608301866111d1565b6116066080830185611563565b61161360a0830184611545565b979650505050505050565b60006020820190508181036000830152611637816112d6565b9050919050565b6000602082019050818103600083015261165781611316565b9050919050565b6000602082019050818103600083015261167781611356565b9050919050565b6000602082019050818103600083015261169781611396565b9050919050565b600060208201905081810360008301526116b7816113d6565b9050919050565b600060208201905081810360008301526116d881846114a6565b905092915050565b60006020820190506116f56000830184611545565b92915050565b6000604051905081810181811067ffffffffffffffff8211171561172257611721611988565b5b8060405250919050565b600067ffffffffffffffff82111561174757611746611988565b5b601f19601f8301169050602081019050919050565b6000819050602082019050919050565b600081519050919050565b600081519050919050565b6000602082019050919050565b600082825260208201905092915050565b600082825260208201905092915050565b600082825260208201905092915050565b60006117cd8261189f565b91506117d88361189f565b9250827fffffffffffffffffffffffffffffffffffffffffffffffffffffffffffffffff0382111561180d5761180c61192a565b5b828201905092915050565b6000611823826118a9565b915061182e836118a9565b92508260ff038211156118445761184361192a565b5b828201905092915050565b600061185a8261187f565b9050919050565b600061186c8261187f565b9050919050565b60008115159050919050565b600073ffffffffffffffffffffffffffffffffffffffff82169050919050565b6000819050919050565b600060ff82169050919050565b82818337600083830152505050565b60005b838110156118e35780820151818401526020810190506118c8565b838111156118f2576000848401525b50505050565b6000600282049050600182168061191057607f821691505b6020821081141561192457611923611959565b5b50919050565b7f4e487b7100000000000000000000000000000000000000000000000000000000600052601160045260246000fd5b7f4e487b7100000000000000000000000000000000000000000000000000000000600052602260045260246000fd5b7f4e487b7100000000000000000000000000000000000000000000000000000000600052604160045260246000fd5b6000601f19601f8301169050919050565b6119d18161184f565b81146119dc57600080fd5b50565b6119e88161189f565b81146119f357600080fd5b50565b6119ff816118a9565b8114611a0a57600080fd5b5056fea2646970667358221220f3d5986ce312d9aa1d673320e26d50144057abfa68822e33b7265bbdbf4adf5b64736f6c63430008000033",
  "immutableReferences": {},
  "source": "// SPDX-License-Identifier: MIT\r\npragma solidity ^0.8.0;\r\n\r\ncontract Marketplace {\r\n    struct Model {\r\n        string name;\r\n        string description;\r\n        uint256 price;\r\n        address payable creator;\r\n        uint8 rating;\r\n        uint256 ratingCount;\r\n    }\r\n    event Log(string message);\r\n\r\n    Model[] public models;\r\n    mapping(address => mapping(uint256 => bool)) public purchasedModels;\r\n    function purchaseModel(uint256 modelId) public payable {\r\n        // Check that the model exists\r\n        require(modelId < models.length, \"Model does not exist.\");\r\n\r\n        // Get the model\r\n        Model memory model = models[modelId];\r\n\r\n        // Ensure the buyer has sent enough ether to purchase the model\r\n        require(msg.value == model.price, \"Incorrect payment amount.\");\r\n\r\n        // Ensure the buyer has not already purchased the model\r\n        require(!purchasedModels[msg.sender][modelId], \"Model already purchased.\");\r\n\r\n        // Transfer the payment to the model's creator\r\n        model.creator.transfer(msg.value);\r\n\r\n        // Mark the model as purchased by this buyer\r\n        purchasedModels[msg.sender][modelId] = true;\r\n\r\n        // Emit the event for the purchase\r\n    }\r\n\r\n    function getModels() public view returns (Model[] memory) {\r\n        return models;\r\n    }\r\n\r\n    function listModel(string memory name, string memory description, uint256 price) public {\r\n        models.push(Model({\r\n            name: name,\r\n            description: description,\r\n            price: price,\r\n            creator: payable(msg.sender),\r\n            rating: 0,\r\n            ratingCount: 0\r\n        }));\r\n        emit Log(\"Model was pushed\");\r\n    }\r\n\r\n    function rateModel(uint256 modelId, uint8 rating) public {\r\n        require(modelId < models.length, \"Model does not exist.\");\r\n        Model storage model = models[modelId];\r\n\r\n        model.rating += rating;\r\n        model.ratingCount += 1;\r\n        emit Log(\"Model was rated\");\r\n    }\r\n\r\n    function withdrawFunds() public {\r\n        payable(msg.sender).transfer(address(this).balance);\r\n    }\r\n\r\n    function getModelDetails(uint256 modelId) public view returns (Model memory) {\r\n        require(modelId < models.length, \"Model does not exist.\");\r\n        return models[modelId];\r\n    }\r\n    function getModelCount() public view returns (uint256) {\r\n        return uint256(models.length);\r\n    }\r\n}",
  "sourcePath": "C:\\Users\\zhayl\\Downloads\\Telegram Desktop\\assignment 2_by_baha\\assignment 2\\MyContract\\contracts\\Marketplace.sol",
  "compiler": {
    "name": "solc",
    "version": "0.8.0+commit.c7dfd78e.Emscripten.clang"
  },
  "schemaVersion": "3.4.16",
  "updatedAt": "2024-10-02T17:59:36.405Z",
  "devdoc": {
    "kind": "dev",
    "methods": {},
    "version": 1
  },
  "userdoc": {
    "kind": "user",
    "methods": {},
    "version": 1
  }
}